:1000000000000120554100007D4100007F410000BB
:100010008141000083410000854100000000000094
:100020000000000000000000000000008741000008
:1000300089410000000000008B4100008D4100005C
:100040008F4100009D290000311A00008F410000FF
:100050008F4100008F4100008F4100008F41000060
:10006000151F00008F4100008F4100008F410000EC
:100070008F4100008F4100008F4100008F41000040
:100080008F4100008F4100008F4100008F41000030
:10009000D12D00008F4100008F4100008F410000F2
:1000A0008F4100008F4100008F4100008F41000010
:1000B0008F4100008F4100000000000000000000A0
:1000C0008F4100008F4100008F4100008F410000F0
:1000D0008F4100008F4100008F41000000000000B0
:1000E0000000000000000000000000000000000010
:1000F0000000000000000000000000000000000000
:1001000000000000000000000000000000000000EF
:1001100000000000000000000000000000000000DF
:1004000010B5054C237833B9044B13B10448AFF34E
:1004100000800123237010BD900200200000000026
:10042000B84200000C4B43B10C480D4910B5AFF376
:1004300000800C48036823B910BD0A48036833B92B
:100440007047094B002BF7D0BDE810401847064B0A
:10045000002BF5D0184700BF00000000B842000094
:10046000940200208C02002000000000154B002B9D
:1004700008BF134B9D46A3F5803A00218B460F46DB
:100480001348144A121A00F063F80F4B002B00D0E7
:1004900098470E4B002B00D0984700200021040005
:1004A0000D000D48002802D00C48AFF3008000F08A
:1004B0002BF82000290003F0EBFB00F011F800BF3F
:1004C0000000080000000120000000000000000003
:1004D00090020020F040002000000000000000001A
:1004E00008B5074B044613B10021AFF30080054B5C
:1004F0001868836A03B19847204600F031F800BFBE
:1005000000000000D041000070B50D4E0D4CA41B42
:10051000A4100025A54209D10B4E0C4C03F04CFE53
:10052000A41BA4100025A54205D170BD56F82530A6
:1005300098470135EEE756F8253098470135F2E740
:10054000840200208402002084020020880200200F
:1005500002440346934200D1704703F8011BF9E7B8
:10056000FEE700BF80B485B000AF78607B689B6811
:10057000FB607B68DA68FB68D31A18461437BD46FF
:100580005DF8047B7047000080B586B000AF7860EE
:1005900039607B681B78012B30D17B685B681B78E6
:1005A0001946314801F07FFD78617B69002B0AD044
:1005B00001233B737B693B612C4B1B6807F10C02E9
:1005C000104698470DE02848FFF7CCFF0346012B63
:1005D00007D100233B73254B1B6807F10C02104623
:1005E00098472148FFF7BEFF02461F4B9B889A425F
:1005F00035D801211E4800F0C3FF30E07B681B782E
:10060000022B0FD102233B737B68DB683B61012126
:10061000174800F0B5FF154B1B6807F10C02104698
:1006200098471CE07B681B78002B18D111491248B1
:1006300001F053FD0346002B03D101210D4800F0CA
:100640002DFE0D48FFF78EFF0346002B07D1032335
:100650003B73064B1B6807F10C021046984700BF1E
:100660001837BD4680BD00BFB8020020AC02002094
:10067000B4020020B0020020C8020020B0B58EB045
:1006800000AFF860B9607A60FB70394A7B6813602C
:10069000BB68002B01D1072365E0BB681968BB6804
:1006A0005B689BB21A46334801F0D1FC78637B6BE0
:1006B000002B01D07B6B56E0BB689968BB68DB6898
:1006C0009BB21A462C4801F0C2FC78637B6B002B6E
:1006D00001D07B6B47E0294B07F114041D460FCD79
:1006E0000FC495E80F0084E80F00FB689B68FB626D
:1006F000FB681B79002B14BF01230023DBB287F8B2
:100700002830FB7887F83030FB685B79002B01D00C
:100710000E2300E0002387F82930FB68DB78FB61BB
:10072000FB689B783B62FB681B78BB61FB685B786E
:100730007B6107F114031249184600F0A3FC7863AB
:100740007B6B002B01D07B6B0DE097F8313083F091
:100750000103DBB2002B01D000F08CFF012109481E
:1007600000F00EFF034618463837BD46B0BD00BF47
:10077000AC020020B8020020C8020020D4410000D2
:1007800089050000B402002080B584B000AF786015
:100790000D48FFF7E7FE02460B4B9B889A4209D1B2
:1007A00001210A4800F0ECFEF860FB68002B01D044
:1007B000052304E07968044801F08FFC03461846DD
:1007C0001037BD4680BD00BFB8020020B402002033
:1007D00080B584B000AF0346FB71FB791946104821
:1007E00001F061FCF860FB68002B13D100F08AFD7A
:1007F000034683F00103DBB2002B0BD00949084804
:1008000001F06BFC0346002B04D10121054800F0E8
:1008100045FDF860FB6818461037BD4680BD00BF37
:10082000C8020020B002002080B485B000AF78601C
:1008300043E07B68013B7B6040F2E733FB60FB6891
:100840001846013800BF00BF00BF00BF00BF00BF97
:1008500000BF00BF00BF00BF00BF00BF00BF00BFA0
:1008600000BF00BF00BF00BF00BF00BF00BF00BF90
:1008700000BF00BF00BF00BF00BF00BF00BF00BF80
:1008800000BF00BF00BF00BF00BF00BF00BF00BF70
:1008900000BF00BF00BF00BF00BF00BF00BF00BF60
:1008A00000BF00BF00BF00BF00BF00BF00BF00BF50
:1008B00000BF00BF00BF00BFC3D17B68002BB8D111
:1008C00000BF1437BD465DF8047B704780B483B029
:1008D00000AF0346FB71094997F907305B09FA79C4
:1008E00002F01F02012000FA02F241F8232000BFAB
:1008F0000C37BD465DF8047B704700BF00E100E0A7
:1009000080B483B000AF0346FB71094997F9073003
:100910005B09FA7902F01F02012000FA02F260334B
:1009200041F8232000BF0C37BD465DF8047B7047BB
:1009300000E100E080B483B000AF03463960FB7192
:1009400097F90730002B0BDA0D49FB7903F00F0301
:10095000043B3A68D2B25201D2B20B441A7609E093
:10096000084997F907303A68D2B25201D2B20B4423
:1009700083F8002300BF0C37BD465DF8047B704749
:1009800000ED00E000E100E080B582B000AF03467A
:100990000A46FB711346BB71BA7997F907301146C5
:1009A0001846FFF7C7FF97F907301846FFF7A8FF6B
:1009B00097F907301846FFF789FF00BF0837BD4693
:1009C00080BD80B483B000AF78600B467B807B88AD
:1009D0007A68134400221A6000BF0C37BD465DF8E8
:1009E000047B704780B483B000AF78600B467B8097
:1009F0007B887A6813441B68002B14BF01230023F3
:100A0000DBB218460C37BD465DF8047B704780B4F6
:100A100083B000AF786039607B683A68C3F804231C
:100A200000BF0C37BD465DF8047B704780B483B0CF
:100A300000AF786039607B68D3F804233B681340CB
:100A4000002B14BF01230023DBB218460C37BD4630
:100A50005DF8047B704780B483B000AF7860396084
:100A60007B683A68C3F8082300BF0C37BD465DF8C1
:100A7000047B704780B485B000AF78607B68D3F8A2
:100A80008034FB607B68FA68C3F88024FB681846F2
:100A90001437BD465DF8047B704780B483B000AF67
:100AA00078607B680422C3F8002500BF0C37BD4680
:100AB0005DF8047B704780B485B000AFF860B96022
:100AC0007A60FB68BA68C3F80C25FB687A68C3F8DB
:100AD000142500BF1437BD465DF8047B704780B411
:100AE00085B000AFF860B9607A60FB68BA68C3F897
:100AF0000825FB687A68C3F8102500BF1437BD4687
:100B00005DF8047B704780B483B000AF78607B6889
:100B1000D3F81835DBB218460C37BD465DF8047BB8
:100B2000704780B483B000AF78600B46FB70FA78F2
:100B30007B68C3F81C2500BF0C37BD465DF8047BFD
:100B4000704780B483B000AF78600B46FB70FB78D1
:100B50007A68134401221A6000BF0C37BD465DF865
:100B6000047B704780B483B000AF78600B46FB70A5
:100B70001346BB70FA78BB781343DBB21A467B6826
:100B8000C3F86C2500BF0C37BD465DF8047B704789
:100B900080B483B000AF786039607B683A68C3F88E
:100BA000242500BF0C37BD465DF8047B704780B438
:100BB00083B000AF78600B467B807B887A681344F3
:100BC00000221A6000BF0C37BD465DF8047B7047F9
:100BD00080B483B000AF78600B467B807B887A68F6
:100BE00013441B68002B14BF01230023DBB21846FB
:100BF0000C37BD465DF8047B704780B483B000AF0E
:100C0000786039607B68D3F800223B681A437B68C0
:100C1000C3F8002200BF0C37BD465DF8047B704767
:100C200080B483B000AF786039607B68D3F800226D
:100C30003B68DB431A407B68C3F8002200BF0C37D7
:100C4000BD465DF8047B704780B483B000AF786028
:100C500039607B683A68C3F8042300BF0C37BD468F
:100C60005DF8047B704780B483B000AF7860396072
:100C70007B683A68C3F8082300BF0C37BD465DF8AF
:100C8000047B704780B485B000AF78607B68D3F890
:100C90008034FB607B68FA68C3F88024FB681846E0
:100CA0001437BD465DF8047B704780B483B000AF55
:100CB00078607B680822C3F8002500BF0C37BD466A
:100CC0005DF8047B704780B485B000AFF860B96010
:100CD0007A60FB68BA68C3F80C25FB687A68C3F8C9
:100CE000142500BF1437BD465DF8047B704780B4FF
:100CF00085B000AFF860B9607A60FB68BA68C3F885
:100D00000825FB687A68C3F8102500BF1437BD4674
:100D10005DF8047B704780B483B000AF78600B4609
:100D2000FB70FB787A68134401221A6000BF0C370D
:100D3000BD465DF8047B704780B483B000AF786037
:100D40000B46FB701346BB70FA78BB781343DBB2DB
:100D50001A467B68C3F86C2500BF0C37BD465DF8AA
:100D6000047B704780B483B000AF786039607B68E3
:100D70003A68C3F8242500BF0C37BD465DF8047BF4
:100D8000704780B485B000AFF860B9601346FB715E
:100D9000BA68FB68C3F84425FA79FB68C3F84825AC
:100DA00000BF1437BD465DF8047B704780B483B044
:100DB00000AF78607B68D3F84C3518460C37BD46D9
:100DC0005DF8047B704780B485B000AFF860B9600F
:100DD0001346FB71BA68FB68C3F83425FA79FB68DF
:100DE000C3F8382500BF1437BD465DF8047B704753
:100DF00080B483B000AF78607B68D3F83C35184688
:100E00000C37BD465DF8047B704780B483B000AFFB
:100E10007860084611461A460346FB700B46BB70C5
:100E200013467B704FF0A041FA78BB785B001A4301
:100E30007B789B001A433B7C1B021A433B7D1B04BF
:100E40001A437B6803F5E07341F8232000BF0C3799
:100E5000BD465DF8047B704780B584B002AF786012
:100E600000230193002300930023012201217868CD
:100E7000FFF7CBFF00BF0837BD4680BD80B584B00B
:100E800002AF78600B46FB70FA78002301930023D1
:100E900000931346002200217868FFF7B6FF00BFD9
:100EA0000837BD4680BD80B483B000AF78604FF096
:100EB000A04201217B6801FA03F3C2F8083500BFA4
:100EC0000C37BD465DF8047B7047000080B582B0EA
:100ED00000AF78607B681B681846FFF7E4FF7B680B
:100EE0001B681846FFF7B8FF7B685B68002118464F
:100EF000FFF7C4FF364B1B7F002B32D07B689B690A
:100F000019463448FFF72EFF7B68597D7B681B7DAF
:100F10001A463048FFF710FF7B6819687B685B68EA
:100F20001A462C48FFF7CFFE7B681B7D012B4AD168
:100F30007B689B6800211846FFF7A0FF7B68DB6891
:100F40001846FFF7B0FF7B68DB681846FFF784FFA1
:100F50007B68D9687B689B681A461E48FFF7C7FE06
:100F600031E07B689B6919461A48FFF711FE7B68E0
:100F7000597D7B681B7D1A461648FFF7F3FD7B6899
:100F800019687B685B681A461248FFF794FD7B6816
:100F90001B7D012B17D17B689B6800211846FFF74A
:100FA0006DFF7B68DB681846FFF77DFF7B68DB68B9
:100FB0001846FFF751FF7B68D9687B689B681A4623
:100FC0000448FFF78CFD00BF0837BD4680BD00BF59
:100FD000D80200200020004080B582B000AF034658
:100FE000FB711A4B1B7F002B18D04FF488711848E7
:100FF000FFF7DDFD4FF490711548FFF7D8FD4FF472
:1010000092711348FFF7D3FD4FF4A2711048FFF718
:10101000CEFD10490E48FFF717FE0DE04FF48E711C
:101020000B48FFF7CEFC4FF4A2710948FFF7C9FC4B
:1010300009490748FFF7EBFCFB7919460220FFF747
:10104000A3FC00BF0837BD4680BD00BFD80200200A
:1010500000200040100302008000020080B500AFB5
:10106000064B1B7F002B03D00548FFF71EFE02E056
:101070000348FFF712FD00BF80BD00BFD80200206B
:101080000020004080B582B000AF786039601C4B12
:10109000DB7E002B01D008232DE07B68002B01D1E3
:1010A000184B7B607B685A7F154B1A777868FFF77F
:1010B0000DFF134A3B6853607B681B69104A13603D
:1010C0000F4B5B68002B04D07B681B7F1846FFF733
:1010D00083FFFFF7C3FF0A4B0022DA75084B00229B
:1010E0001A76074B00229A75054B0122DA76044BDB
:1010F00000229A76002318460837BD4680BD00BFFF
:10110000D8020020F441000080B582B000AF4FF457
:101110008E710D48FFF755FC0C4B9B680B4A928A69
:1011200092B213441B78FB71084B9B8A9BB201332C
:101130009AB2064B9A82FB7919460348FFF7F1FCF5
:1011400000BF0837BD4680BD00200040D802002007
:1011500080B582B000AF00237B604FF48E712848C9
:10116000FFF72FFC08212648FFF7EBFCFFF7CCFF29
:10117000244B5B68002B3ED119E000BF4FF48E7109
:101180001F48FFF72FFC034683F00103DBB2002B5F
:1011900005D01C4B9B8A9BB2B3F5807FEED1194BD7
:1011A0009B8A9BB2B3F5807F01D0FFF7ADFF154B53
:1011B0009B8A9AB2134B9B7D9BB29A42DDD3114B13
:1011C0009B8A9BB2B3F5807F02D10F237B600FE037
:1011D00000BF4FF48E710A48FFF704FC034683F00A
:1011E0000103DBB2002BF4D10C210548FFF7A9FC69
:1011F000044B00229A757B6818460837BD4680BDAF
:1012000000200040D802002080B582B000AF00234B
:101210007B604FF490711F48FFF7C9FC4FF4AC712D
:101220001C48FFF7C4FC1C4B99681B4B9B7D1A465E
:101230001848FFF7A6FD08211648FFF76CFD164B6E
:101240005B68002B21D14FF490711248FFF7C0FC6E
:101250000346FB704FF4AC710E48FFF7B9FC034630
:10126000BB70FB7883F00103DBB2002B05D0BB78A9
:1012700083F00103DBB2002BE5D1BB78002B01D05A
:101280000F237B60044B00229A757B681846083751
:10129000BD4680BD00200040D802002080B582B04D
:1012A00000AF78600B46FB70154B1B7F002B07D0FF
:1012B0007B681B0C1B04B3F1005F01D010231AE004
:1012C00000F020F80346002B01D0112313E00C4A54
:1012D000FB7893750A4A7B689360094B00229A82D7
:1012E000074B1B7F002B03D0FFF78EFF034602E066
:1012F000FFF72EFF034618460837BD4680BD00BFE6
:10130000D802002080B400AF054B9B7D002B14BF9A
:1013100001230023DBB21846BD465DF8047B70470D
:10132000D802002080B500AF4FF492710648FFF755
:1013300048FB4FF484710448FFF743FB0021024847
:10134000FFF7FFFB00BF80BD0020004098B500AF55
:10135000124BDB7D002B08D14FF484711048FFF74E
:1013600030FB0F48FFF7CFFB16E04FF484710C48B9
:10137000FFF727FB094BDB68084A527ED2B29C1864
:101380000748FFF7C0FB03462370044B5B7EDBB2CC
:101390000133DAB2014B5A7698BD00BFD802002063
:1013A0000020004080B584B000AF78600B46FB7031
:1013B0001346BB70394B9B7E83F00103DBB2002BDD
:1013C00007D0BB7883F00103DBB2002B01D0FFF71D
:1013D000A9FF324B5B68002B55D14FF4A271304806
:1013E000FFF7EFFA4FF492712D48FFF7FBFA03462F
:1013F000FB734FF484712A48FFF7F4FA0346BB737A
:101400004FF4A2712648FFF7EDFA03467B73BB7BCE
:1014100083F00103DBB2002B0BD07B7B83F0010355
:10142000DBB2002B05D0FB7B83F00103DBB2002B8A
:10143000D8D1FB7B002B0BD17B7B002B08D1FFF796
:1014400085FF164BDA7D154B5B7EDBB29A42C9D81D
:10145000124B0022DA75FB7B002B01D0032318E02E
:101460007B7B002B01D00F2313E00C4B9B7E002BCA
:1014700004D000210A48FFF764FB09E00421084872
:10148000FFF75FFB04E04FF401710548FFF7BFFA77
:10149000002318461037BD4680BD00BFD80200208B
:1014A0000020004080B584B000AF78600B46FB7030
:1014B0001346BB704FF488712F48FFF778FB4FF449
:1014C000A2712D48FFF773FBFB781A4679682A480A
:1014D000FFF779FCBB7883F00103DBB2002B04D06B
:1014E00000212548FFF717FC03E020212248FFF7E1
:1014F00084FB224B5B68002B33D14FF488711E486C
:10150000FFF766FB0346FB734FF4A2711A48FFF71F
:101510005FFB0346BB734FF492711748FFF758FB0C
:1015200003467B73FB7B83F00103DBB2002B0BD004
:10153000BB7B83F00103DBB2002B05D07B7B83F008
:101540000103DBB2002BD8D10C4B0022DA757B7B78
:10155000002B01D003230AE0BB7B002B06D00F2316
:1015600005E04FF404710448FFF76EFB00231846B2
:101570001037BD4680BD00BF00200040D8020020CB
:1015800080B584B000AF78600B46FB70374B1B7F93
:10159000002B07D07B681B0C1B04B3F1005F01D04C
:1015A00010235FE00023FB73304B5B68002B0ED0F1
:1015B0002E4B1B7F002B05D04FF404712C48FFF7F6
:1015C00052FB04E04FF401712948FFF744FA274B1E
:1015D000DB7D002B1AD0254B1B7E002B14D0234B18
:1015E0005B68002B0ED0214B1B7F002B05D04FF4E6
:1015F00004711F48FFF728FB04E04FF401711C48F9
:10160000FFF705FA11232DE00123FB73FB7B83F029
:101610000103DBB2002B0CD0144AFB78D375134ABC
:101620007B68D360114B00225A76104B00221A7649
:1016300005E00E4A7B6813610C4AFB7813760B4B6E
:101640001B7F002B07D0FA7BFB7819467868FFF7E1
:1016500029FF034606E0FA7BFB7819467868FFF716
:10166000A1FE034618461037BD4680BDD8020020B3
:101670000020004080B500AF084B1B7F002B0BD132
:10168000064B9B7E83F00103DBB2002B04D0FFF7F7
:1016900049FE024B01229A7600BF80BDD80200208D
:1016A00080B586B000AF03463960FB7101233B7201
:1016B000FB793B743B68FB60054B5B68044A11682F
:1016C00007F108021046984700BF1837BD4680BD95
:1016D000D802002080B586B000AF0346FB7100231E
:1016E0003B72FB793B74094B9B68FB60074B002204
:1016F0009A75064B5B68054A116807F108021046A7
:10170000984700BF1837BD4680BD00BFD8020020F3
:1017100080B586B000AF4FF400716D48FFF786F9D1
:101720000346002B37D04FF492716948FFF75AF9FE
:101730000346002B2FD04FF492716548FFF741F913
:101740004FF401716248FFF786F9624B9B7E83F08C
:101750000103DBB2002B03D004215D48FFF7F1F950
:1017600002233B705A48FFF785F90346FB60594B4B
:10177000DB7D3B72574BDB687B60564B0022DA7592
:10178000544B00221A76534B5B68524A11683A4612
:101790001046984751E004214D48FFF747F90346AA
:1017A000002B4AD04FF484714948FFF71BF90346D8
:1017B000002B42D0FFF7CAFD464BDA7D454B5B7EDE
:1017C000DBB29A4239D1434B1B7E002B19D0414BDF
:1017D000DB687B613F4B5B7EFB743E4B1A7E3D4B6F
:1017E000DA753C4B1B693B4AD3603A4B00221A76B0
:1017F000384B00225A76FB7C79691846FFF750FF78
:101800001BE0344B9B7E83F00103DBB2002B03D043
:1018100004212F48FFF795F94FF401712C48FFF789
:101820001AF92C4B0022DA752A4B5B7EDAB2294B6F
:10183000DB6819461046FFF733FF4FF48E712448DA
:10184000FFF7D0F80346002B18D0224B9B8A9AB2A0
:10185000204B9B7D9BB29A4202D2FFF755FC0DE0D4
:101860004FF48E711A48FFF7ACF81A4B9B7D002B92
:1018700004D0184B9B7D1846FFF72CFF4FF4A27144
:101880001348FFF7AFF80346002B1CD04FF4A271AA
:101890000F48FFF796F80F4B9B7E002B03D00021DB
:1018A0000B48FFF74EF90B4BDB7D002B0BD0094BA0
:1018B0000022DA75074B5B7EDAB2064BDB6819460D
:1018C0001046FFF7EDFE00BF1837BD4680BD00BFD4
:1018D00000200040D802002080B586B000AF4FF451
:1018E00092715148FFF774F90346002B22D04FF450
:1018F00092714D48FFF75BF902233B704A48FFF7AE
:10190000C1F90346FB604848FFF772FA0346DBB2B1
:101910003B72464BDB687B60444B0022DA75434BDD
:1019200000221A76414B5B68404A11683A461046DD
:1019300098473CE04FF488713B48FFF749F903466C
:10194000002B34D04FF488713748FFF730F9364810
:10195000FFF74EFA0346FB75344BDB7DFA7D9A4266
:1019600025D1324B1B7E002B17D0304BDB683B61FF
:1019700020212D48FFF754F92C4B1A7E2B4BDA759A
:101980002A4B1B69294AD360284B00221A76FB7D1B
:1019900039691846FFF784FE09E0244B0022DA7506
:1019A000224BDA68FB7D11461846FFF779FE4FF4AB
:1019B000A2711D48FFF70CF90346002B16D04FF417
:1019C000A2711948FFF7F3F8184BDB7D002B0DD0FF
:1019D000164B0022DA751448FFF70AFA0346DAB20A
:1019E000124BDB6819461046FFF75AFE4FF4907110
:1019F0000D48FFF7EDF80346002B10D04FF490711F
:101A00000948FFF7D4F8094B9B7D002B07D0064807
:101A1000FFF7CCF90346DBB21846FFF75BFE00BFC9
:101A20001837BD4680BD00BF00200040D80200200E
:101A300080B500AF054B1B7F002B02D0FFF74CFF9A
:101A400001E0FFF765FE00BF80BD00BFD8020020A7
:101A500080B483B000AF78600B46FB70FB787A6887
:101A6000134401221A6000BF0C37BD465DF8047BA9
:101A7000704780B483B000AF78600B467B807B8872
:101A80007A68134400221A6000BF0C37BD465DF827
:101A9000047B704780B483B000AF78600B467B80D6
:101AA0007B887A6813441B68002B14BF0123002332
:101AB000DBB218460C37BD465DF8047B704780B436
:101AC00083B000AF786039607B68D3F800223B6850
:101AD0001A437B68C3F8002200BF0C37BD465DF88F
:101AE000047B704780B483B000AF786039607B6856
:101AF000D3F800223B68DB431A407B68C3F800221E
:101B000000BF0C37BD465DF8047B704780B483B0DE
:101B100000AF786039607B683A68C3F8042300BF7F
:101B20000C37BD465DF8047B704780B483B000AFCE
:101B3000786039607B683A68C3F8082300BF0C37C7
:101B4000BD465DF8047B704780B483B000AF786019
:101B500039607B68D3F804233B681340002B14BF23
:101B600001230023DBB218460C37BD465DF8047B29
:101B7000704780B483B000AF78600B46FB707B6821
:101B8000D3F8043523F00302FB7803F003031A4370
:101B90007B68C3F8042500BF0C37BD465DF8047BA5
:101BA000704780B483B000AF78600B46FB707B68F1
:101BB000D3F8083523F00302FB7803F003031A433C
:101BC0007B68C3F8082500BF0C37BD465DF8047B71
:101BD000704780B483B000AF78600B46FB707B68C1
:101BE000D3F8103523F00F02FB7803F00F031A43EC
:101BF0007B68C3F8102500BF0C37BD465DF8047B39
:101C0000704780B485B000AFF8600B467A60FB7215
:101C1000FA7AFB6802F5A872796843F8221000BFCF
:101C20001437BD465DF8047B704780B483B000AFC5
:101C300078607B689BB250339BB29B009BB2184686
:101C40000C37BD465DF8047B704780B483B000AFAD
:101C500078604FF480327B6802FA03F318460C3741
:101C6000BD465DF8047B704780B485B000AF7860F6
:101C70007B681B0BFB7397F90F3018461437BD4672
:101C80005DF8047B7047000090B587B000AFF86046
:101C9000B9607A60FB681B791A4613465B001344EF
:101CA0009B00304A13443B613B691B7A002B01D0F7
:101CB000082353E07B68002B01D107234EE0BB686B
:101CC000002B05D1FB681B79DB00274A1344BB605E
:101CD0003B697A681A60BB685A683B695A6000239E
:101CE000FB750DE0FB681C68FB7D1846FFF79DFF48
:101CF000034619462046FFF7BCFEFB7D0133FB750A
:101D0000FB685B79FA7D9A42ECD3FB681B68184646
:101D1000FFF7AAFF03461A46BB68DB781946104650
:101D2000FEF732FEFB681A68BB685B7819461046FE
:101D3000FFF71FFFFB681A68BB689B7819461046BF
:101D4000FFF72FFFFB681A68BB681B78194610461F
:101D5000FFF73FFF3B6901221A72002318461C3728
:101D6000BD4690BDF80200201442000080B582B04C
:101D700000AF78607B681B6800211846FFF768FE9B
:101D80007B681B791946064A0B465B000B449B0097
:101D90001344083302221A7000BF0837BD4680BDC5
:101DA000F802002080B582B000AF78607B681B68C5
:101DB00010211846FFF74CFE7B681B791946064A2E
:101DC0000B465B000B449B001344083301221A703E
:101DD00000BF0837BD4680BDF802002080B582B044
:101DE00000AF78607B681B680C211846FFF730FE57
:101DF00000BF0837BD4680BD80B586B000AFF86033
:101E00007A601A460B46FB721346BB72FB7A184681
:101E1000FFF71BFF7861BB7A002B06D0FB681B68BD
:101E200079691846FFF772FE05E0FB681B6879695F
:101E30001846FFF77AFEFB681B68F97A7A6818463D
:101E4000FFF7DFFE00BF1837BD4680BD80B584B008
:101E500000AFF8607A601A460B46FB7213463B816E
:101E6000FB681868FB7A4FF480729A40FB7A012174
:101E700001FA03F313431946FFF734FEFB681B68AE
:101E80003A8911461846FFF71AFE3B7EF97A7A68BE
:101E9000F868FFF7B1FF00BF1037BD4680BD80B5C1
:101EA00086B000AFF860B9601346FB710023FB7584
:101EB00028E0FB7D1846FFF7B8FE0346BB82FB7D9A
:101EC0001846FFF7C2FE3861BB8A1946F868FFF76B
:101ED000E1FD0346002B12D03969F868FFF734FEA4
:101EE0000346002B0BD0BB8A1946F868FFF7C1FDEB
:101EF000BB681B68BA685168BA8A10469847FB7D70
:101F00000133FB75FA7DFB799A42D2D300BF1837B3
:101F1000BD4680BD80B500AF042203490348FFF7EA
:101F2000BEFF00BF80BD00BFF8020020008000405F
:101F300080B586B000AF78600023BB8100233B6191
:101F40007B687B6107F10C031A46002144F2010013
:101F500000F018F800BF1837BD4680BD80B400AF50
:101F6000BFF34F8F0549054BDB6803F4E062044B78
:101F70001343CB60BFF34F8F00BFFDE700ED00E0E0
:101F80000400FA0580B584B000AFF860B9607A60EB
:101F9000FFF7E4FF00BF1037BD4680BD80B485B0B9
:101FA00000AF78607B689B68FB607B68DA68FB68E1
:101FB000D31A18461437BD465DF8047B704780B4C9
:101FC00083B000AF78600B46FB707B681A687B6853
:101FD000DB68796889880B401344FA781A707B684B
:101FE000DB685A1C7B68DA6000BF0C37BD465DF8C1
:101FF000047B704780B485B000AFF8600B467A6010
:102000007B81FB681A68FB6899687B890B44F968D7
:1020100089880B4013441A787B681A7000BF143704
:10202000BD465DF8047B704780B582B000AF786034
:1020300039603A6800217868FFF7DCFF7B689B68AD
:102040005A1C7B689A6000BF0837BD4680BD80B4CB
:1020500085B000AFF860B9601346FB80BB68002B09
:1020600001D10E2319E0FB88002B05D0FB885A1EF6
:10207000FB881340002B01D009230EE0FB68BA68EF
:102080001A60FB88013B9AB2FB689A80FB680022C9
:102090009A60FB680022DA60002318461437BD46B8
:1020A0005DF8047B704780B582B000AF78600B4666
:1020B000FB707868FFF772FF02467B689B889A4244
:1020C00006D8FB7819467868FFF779FF002300E00F
:1020D000042318460837BD4680BD80B582B000AFE6
:1020E000786039607868FFF759FF0346002B05D008
:1020F00039687868FFF798FF002300E00523184649
:102100000837BD4680BD000080B582B002AF144BD9
:102110001B78002B01D000231EE0012300934FF415
:102120008063104A1049002001F0F8F80346002BA4
:1021300001D0082310E00023009310230B4A0C4920
:10214000002001F055F90346002B01D0082303E0DD
:10215000034B01221A7000231846BD4680BD00BF04
:1021600014070020040300201C4200000407002084
:102170002442000080B483B000AF0346FB710949DC
:1021800097F907305B09FA7902F01F02012000FA83
:1021900002F241F8232000BF0C37BD465DF8047BF6
:1021A000704700BF00E100E080B483B000AF034699
:1021B000FB71094997F907305B09FA7902F01F02B0
:1021C000012000FA02F2203341F8232000BF0C372F
:1021D000BD465DF8047B704700E100E080B483B049
:1021E00000AF0346FB71094997F907305B09FA799B
:1021F00002F01F02012000FA02F2403341F82320CE
:1022000000BF0C37BD465DF8047B704700E100E07D
:1022100080B483B000AF0346FB71094997F90730DA
:102220005B09FA7902F01F02012000FA02F2603322
:1022300041F8232000BF0C37BD465DF8047B704792
:1022400000E100E080B483B000AF03463960FB7169
:1022500097F90730002B0BDA0D49FB7903F00F03D8
:10226000043B3A68D2B25201D2B20B441A7609E06A
:10227000084997F907303A68D2B25201D2B20B44FA
:1022800083F8002300BF0C37BD465DF8047B704720
:1022900000ED00E000E100E080B487B000AF7860BE
:1022A0007B681B687B617B69FB60FB6893FAA3F327
:1022B000BB60BB683B613B691BBA00BF18461C375B
:1022C000BD465DF8047B704780B584B000AF786090
:1022D0007868FFF7E1FF0346FB60FB681BBA00BFAD
:1022E00018461037BD4680BD80B483B000AF78601B
:1022F0000A4B0B4AC3F81425084A0A4B5B7C013B86
:102300001B0443F0807343F0FC03C2F8183500BF90
:102310000C37BD465DF8047B704700BF00100040DD
:10232000080003006000002080B483B000AF786034
:102330000C4B0D4AC3F814250A490C4B5B7C013B3E
:102340001B041A467B681B021A437B68134343F045
:102350008073C1F8183500BF0C37BD465DF8047BAB
:10236000704700BF00100040000101006000002025
:1023700090B583B000AF0346FB71FB7903F0010316
:10238000002B06D0144C1548FFF79EFF0346C4F8F7
:102390001C35FB7903F00203002B06D00E4C1048CD
:1023A000FFF792FF0346C4F82035FB7903F00403DE
:1023B000002B0DD0084C0B48FFF76EFF0346C4F806
:1023C0002435054C0848FFF767FF0346C4F8283555
:1023D00000BF0C37BD4690BD0010004060000020DB
:1023E00064000020680000206C00002080B400AF72
:1023F000044B054A927AC3F80C2500BFBD465DF830
:10240000047B7047001000402007002080B400AF1C
:10241000144B154A127AC3F81025134B1B7A032B61
:102420001AD801A252F823F04124000039240000F8
:1024300049240000512400000C4B30221A600CE0AB
:102440000A4B40221A6008E0084BFA221A6004E0A6
:10245000064B40221A6000E000BF00BFBD465DF899
:10246000047B704700100040200700202C2A002029
:1024700080B400AF094B1B78002B06D0012B00D095
:1024800007E0074B074A1A6003E0054B064A1A604B
:1024900000BF00BFBD465DF8047B704720070020E9
:1024A000382A0020E92200002923000080B400AF70
:1024B000124B134A527AC3F83425114B5B7A022B24
:1024C00009D10E4B4FF6FF72C3F83C250B4B0D4A5A
:1024D000C3F838250CE00A4B5B7A012B08D1074B77
:1024E000FF22C3F83C25054B40F20712C3F83825FC
:1024F00000BFBD465DF8047B704700BF0010004080
:10250000200700202110010080B500AFFFF76EFF0B
:10251000FFF77CFFFFF7ACFFFFF7C8FF034B1B681B
:10252000034AD27C1046984700BF80BD382A00205D
:102530002007002080B400AF0B4B00221A640A4B26
:1025400000225A64084B00229A64084B00221A6445
:10255000064B00225A64054B00229A6400BFBD4618
:102560005DF8047B704700BF48170020A4270020B7
:1025700080B582B000AFFFF7DDFF00237B600CE089
:102580007A6813461B021344114A1A4411497B68A6
:1025900041F823207B6801337B607B680F2BEFDDE4
:1025A00000233B600CE03A6813461B0213440A4ABE
:1025B0001A440A493B6841F823203B6801333B60D9
:1025C0003B680F2BEFDD00BF0837BD4680BD00BF65
:1025D000380700204817002094170020A427002067
:1025E00080B500AF0E4B9B6C002B16D00120FFF77F
:1025F000DBFD0B4B9B6C013B094A9364084B5B6C06
:102600000133074A5364064B5B6C0F2B02D9044B12
:1026100000225A640120FFF7ADFD00BF80BD00BF5E
:102620004817002080B582B000AF03460A46FB7110
:102630001346BB71354B9B6C0F2B61D8344B1B7809
:10264000012B0ED1334B1B78FC2B01D9002358E012
:102650002E4B1B6C2D4A52F823302E4A12781A70DA
:1026600013E02B4B5B78002B07D1284B1B6C274AC0
:1026700052F8233000221A7007E0244B1B6C234AC7
:1026800052F82330224AD27C1A70204B1B6C1F4A0E
:1026900052F82330581D1D4B1B6C1C4A52F8233036
:1026A0001B781A461C4901F073FD184B1B6C174A26
:1026B00052F82330FA795A70144B1B6C134A52F8B3
:1026C0002330164AD2F8482552B29A700F4B1B6C31
:1026D0000E4A52F82330BA791A710C4B1B6C013335
:1026E0000A4A1364094B1B6C0F2B02D9074B0022BB
:1026F0001A64064B9B6C0133044A9364012300E087
:10270000002318460837BD4680BD00BFA42700201F
:1027100020070020F0280020F228002000100040B0
:1027200080B400AF084B0422C3F81025064B0022EA
:10273000C3F80825044B40F20222C3F8002200BF70
:10274000BD465DF8047B704700A0004080B400AF38
:10275000124B134AC3F86025104B124AC3F8642584
:102760000E4B114AC3F868250C4B104AC3F86C2570
:102770000A4B0F4AC3F87025084B0E4AC3F874255C
:10278000064B0D4AC3F87825044B0C4AC3F87C2548
:1027900000BFBD465DF8047B704700BF00F00140FC
:1027A0000011004000A000400411004004A00040BF
:1027B00040A100401010004044A100400010004023
:1027C00080B582B000AF674B01221A60664B5B6C2C
:1027D000654A52F82330654A1360644B1B68DB7806
:1027E000002B06D0624B1B7D83F00103DBB2002B74
:1027F00001D0012300E00023FB71FB7903F001030A
:10280000FB715B4B1B78002B02D0012B2ED078E0A4
:10281000584B1B68554A1268127810469847534B1C
:102820001B681A79544B1A70534B00225A704F4B45
:102830001B68591D4D4B1B681B781A464F4801F009
:10284000A7FC4F4B40F21B12C3F800224C4B112245
:10285000C3F80423464BDB891A464A4B1A604A4B9D
:102860004A4A1A604A4B02221A704AE03F4B1B68E0
:102870001A78414B1A703D4B1B681B795B00DAB22A
:102880003D4B5A703C4B5B785AB2FB7983F00103A5
:10289000DBB25BB213435BB2DAB2374B5A70334BE5
:1028A0001B68591D314B1B681B781A46334801F0D1
:1028B0006FFCFB79002B14D0314B40F21B12C3F894
:1028C00000222F4B1122C3F80423294BDB891A461F
:1028D0002C4B1A602C4B2D4A1A602D4B02221A7079
:1028E0000EE0274B40F21312C3F80022244B1022B3
:1028F000C3F80423244B274A1A60254B01221A707F
:1029000000BF1F4A194B1B685B78C2F82C351C4A64
:10291000164B1B685B78194601238B40C2F8303593
:10292000174B1D4AD27CC3F80825154B124AC3F831
:1029300004250120FFF76CFC0120FFF71BFC104B66
:102940000022C3F804210E4B0022C3F808210C4BCF
:102950000022C3F810210A4B01221A6000BF083779
:10296000BD4680BD282A00204817002018070020F7
:1029700020070020382A0020F0270020F22700201E
:1029800000100040242A0020302A0020712A000074
:10299000160700202D2A00006000002080B500AF3F
:1029A0001F4BD3F80031002B0AD01D4BD3F8043352
:1029B00003F00103002B03D0194B0022C3F80021C0
:1029C000174BD3F80C31002B11D0154BD3F804332F
:1029D00003F00803002B0AD0114B0022C3F80C218E
:1029E000104B1B68002B02D00E4B1B6898470C4BFA
:1029F000D3F81031002B11D0094BD3F8043303F076
:102A00001003002B0AD0064B0022C3F81021064BFE
:102A10001B68002B02D0044B1B68984700BF80BD89
:102A200000100040342A0020302A002080B500AF7A
:102A30000C4B1B6843F001030A4A1360FFF7D0FDFB
:102A4000094B9B6C002B06D1084B00221A701420F6
:102A5000FFF7C4FB04E01420FFF7C0FBFFF7B0FE54
:102A600000BF80BDF0290020481700201607002075
:102A700080B500AF1E4B40F21312C3F800221D4A6E
:102A80001D4B1B68C2F840351A4B1C4A9289823A8A
:102A9000C3F84425174B0122DA60164B0022C3F815
:102AA0004021144B0022C3F84421154B4FF4E0524F
:102AB000C3F80425124B4FF40052C3F808250C4B01
:102AC0000022C3F80C210D4B1B78002B03D10D4BBA
:102AD0001B6800209847064B0B4AC3F804250B4B94
:102AE0000B4A1A600B4B03221A7000BF80BD00BF57
:102AF0000010004000A000402C2A002020070020E9
:102B000000F00140382A0020F0280020302A002060
:102B1000192B00001607002080B500AF504B4FF472
:102B2000E052C3F808254F4BD3F80C31002B4BD0A3
:102B30004C4BD3F80034002B46D04B4B01225A604B
:102B4000474B4FF40052C3F80825484B1B6843F02D
:102B50000103464A1360464BDB891A46454B1B6806
:102B6000D31A0133444A1360FFF73AFD404B1B78F8
:102B7000002B14D0414B1B78002B10D0394BD3F8CD
:102B80002C35DBB200211846FFF74CFD0346002B25
:102B900005D0364B1B6843F00403344A1360384BAE
:102BA0009B6C002B03D0324B1B7C012B06D1354B89
:102BB00000221A701420FFF711FB4EE01420FFF7DB
:102BC0000DFBFFF7FDFD48E02A4B1B685A1E294903
:102BD0000A60002B1AD1244B01225A60204B4FF47B
:102BE0000052C3F80825224BDB8901331A46224BD9
:102BF0001A601E4B1B6843F002031C4A1360214BF2
:102C000000221A701420FFF7E9FA26E0154B40F273
:102C10001B12C3F800221C4B1B681C4A1268127856
:102C2000104698470F4B1A4AC3F80425194B1A4A05
:102C30001A60144B02221A700B4B01221A60084BC7
:102C40004FF40052C3F80425074BD3F84431002B4E
:102C500003D0044B01221A60FFE700BF80BD00BF14
:102C600000F001400010004000A00040F0290020CA
:102C700020070020242A0020282A0020F0280020F5
:102C80004817002016070020382A002018070020C7
:102C9000F0270020302A0020712A000080B584B07F
:102CA00000AF78607B68002B01D10E2343E0244BFA
:102CB0001B78002B07D000F051F8F860FB68002B60
:102CC00001D0FB6837E07B685B681E4A13601822FE
:102CD00079681D4801F05CFA1C4B00221A6024221E
:102CE00000211B48FDF734FC092200211948FDF79B
:102CF0002FFCFFF709FCFFF73BFCFFF711FDFFF787
:102D000025FD114B5B7C03F0030319460120FFF7FF
:102D100099FA0D4B9B7C03F0030319461420FFF72F
:102D200091FA1420FFF726FA0B4B00221A70044B7D
:102D300001221A70002318461037BD4680BD00BF1F
:102D4000150700201C07002020070020F029002084
:102D5000002A0020F42900201607002080B500AFCB
:102D60000E4B4FF47052C3F808250D4B00221A7019
:102D7000FFF7E0FB242200210A48FDF7E9FB0922C6
:102D800000210948FDF7E4FB1420FFF70DFA074B7B
:102D90000322C3F800220023184680BD00F0014042
:102DA00016070020002A0020F4290020001000400F
:102DB00080B400AF054B1B78002B0CBF0123002310
:102DC000DBB21846BD465DF8047B7047160700204D
:102DD00080B584B000AF1C4B1B687B6007F1080313
:102DE000184600F0AFF9F860FB68002B27D1174BAD
:102DF0001B68002B23D0BB6803F00103002B06D017
:102E000000233B70114B1B683A4610469847BB683D
:102E100003F00203002B06D001233B700B4B1B6811
:102E20003A4610469847BB6803F00403002B06D0CF
:102E300002233B70054B1B683A461046984700BF7B
:102E40001037BD4680BD00BF282A00201C07002087
:102E500080B582B000AF7860454B1B7883F00103EA
:102E6000DBB2002B01D008237EE07B68002B01D170
:102E70000E2379E07B681B78002B0DD07B681B78D4
:102E8000FC2B09D83B4B1B78002B07D17B681A78A9
:102E9000384BDB7C9A4201D9092365E0364B9B6CA9
:102EA0000F2B01D904235FE0324B5B78002B0CD150
:102EB0007B68DB78002B08D02E4B1B7D83F0010351
:102EC000DBB2002B01D006234EE00120FFF76CF9A6
:102ED000294B1B6C284A52F8233040F201127968C2
:102EE000184601F055F97B685B7819467B685B787A
:102EF0001A46224B9B5C01335A4203F0030302F053
:102F0000030258BF5342DAB21C4B5A541A4B1B6C83
:102F1000194A52F823307A6852781146174A525C9F
:102F20001A71154B1B6C0133134A1364124B1B6C43
:102F30000F2B02D9104B00221A640F4B9B6C0133EC
:102F40000D4A93640120FFF715F90A4B5B78002BBB
:102F500009D1084B1B7C002B05D1094B1B78002B9A
:102F600001D1FFF72DFC002318460837BD4680BD70
:102F7000150700202007002048170020F429002012
:102F80001607002080B582B000AF78602E4B1B780A
:102F900083F00103DBB2002B01D0082350E07B68F3
:102FA000002B01D10E234BE0284B9B6C002B01D151
:102FB000052345E00120FFF7F7F8244B5B6C234A1B
:102FC00052F823301A787B681A70204B5B6C1F4ACA
:102FD00052F823305A787B685A701C4B5B6C1B4A42
:102FE00052F8233093F902207B689A70174B5B6C80
:102FF000164A52F823301A797B681A717B68581D7B
:10300000124B5B6C114A52F82330591D7B681B78B8
:103010001A4601F0BDF80D4B5B6C01330B4A53644B
:103020000A4B5B6C0F2B02D9084B00225A64074BEA
:103030009B6C013B054A93640120FFF79BF800233A
:1030400018460837BD4680BD15070020A42700207C
:1030500080B500AF0D4B1B7883F00103DBB2002B72
:1030600001D008230FE00120FFF79EF8084B002253
:103070009A64074B00221A64054B00225A6401200F
:10308000FFF778F80023184680BD00BF1507002021
:103090004817002080B500AF144B1B7883F0010364
:1030A000DBB2002B01D008231EE0114B9B6C002BE0
:1030B00002D14FF4807317E00120FFF775F80C4B35
:1030C0001B6C01330A4A1364094B1B6C0F2B02D98A
:1030D000074B00221A64064B9B6C013B044A936425
:1030E0000120FFF747F80023184680BD1507002090
:1030F0004817002080B500AF0F4B1B7883F0010309
:10310000DBB2002B01D0082314E00120FFF74CF8BC
:103110000A4B00229A64094B00221A64074B0022D2
:103120005A64242200210648FDF712FA0120FFF715
:1031300021F80023184680BD15070020A427002091
:10314000002A002080B582B000AF78600F4B1B785A
:1031500083F00103DBB2002B01D0082312E07B686F
:10316000002B01D10E230DE00120FFF71DF8084BC5
:103170001A687B681A60064B00221A600120FEF76D
:10318000F9FF002318460837BD4680BD150700200B
:10319000F029002080B582B000AF78600B4B1B781F
:1031A000002B01D011230DE07B68002B01D10E23F1
:1031B00008E004227968064800F0EAFF0120FFF7E2
:1031C000D7F8002318460837BD4680BD16070020F3
:1031D0006000002080B582B000AF78600B4B1B7898
:1031E000002B01D011230DE07B68002B01D10E23B1
:1031F00008E004227968064800F0CAFF0220FFF7C1
:10320000B7F8002318460837BD4680BD16070020D2
:103210006400002080B582B000AF78600B46FB7080
:10322000144B1B78002B01D011231FE07B68002B6F
:1032300001D10E231AE0FB78082B01D9072315E0F2
:10324000FB781A4679680C4800F0A2FF0B4AFB781D
:103250001374FB78C3F10803FF2242FA03F3DAB2D6
:10326000064B9A740420FFF783F8002318460837AA
:10327000BD4680BD160700206800002060000020C9
:1032800080B582B000AF1F4B7B607B6802221A6161
:103290007B6802225A617B681B4A9A617B681B4AE1
:1032A000DA617B684FF480621A627B6800229A625E
:1032B0007B6800225A627B680022DA627B68124ACD
:1032C0009A647B68124ADA647B6810221A657B680C
:1032D00000229A657B6800225A657B680022DA65C5
:1032E0007B6807330B49184600F05DFF7B680A498D
:1032F000184600F058FF7B6820229A7100BF0837FB
:10330000BD4680BD703E00202C4200003C2A0020BB
:103310003C2E0020384200003C42000080B586B0C0
:1033200000AFF860B9607A603B60304B1B78002BCF
:1033300001D1FFF7A5FF2D4B1B691A46FB689A4286
:103340004CD9EFF311834FF0200181F311883B61D9
:10335000FB68002B32D02549FB685A1C13465B00E2
:103360001344DB000B44BA681A602049FB685A1CFE
:1033700013465B001344DB000B4404337A681A6085
:103380001A49FA6813465B001344DB000B442033F0
:103390003A681A601549FA6813465B001344DB006B
:1033A0000B44283300221A601049FA6813465B0068
:1033B0001344DB000B44243300221A600B49FA68E3
:1033C00013465B001344DB000B442C333A6A1A604B
:1033D0003B6983F3118800237B6102E04FF0FF33E8
:1033E0007B617B6918461837BD4680BD703E002062
:1033F00080B586B000AFF860B9607A603B60304B52
:103400001B78002B01D1FFF73BFF2D4B5B691A4660
:10341000FB689A424BD9EFF311834FF0200181F3FF
:1034200011883B61FB68002B31D02549FA681346AF
:103430005B001344DB000B444833BA681A60204930
:10344000FA6813465B001344DB000B444C337A6884
:103450001A601B49FA6813465B001344DB000B44F7
:1034600050333A681A601649FA6813465B001344F1
:10347000DB000B44583300221A601149FA681346E6
:103480005B001344DB000B44543300221A600C49E8
:10349000FA6813465B001344DB000B445C333A6A62
:1034A0001A603B6983F3118800237B6102E04FF0CF
:1034B000FF337B617B6918461837BD4680BD00BF6E
:1034C000703E002080B400AFBFF34F8F0549054B1D
:1034D000DB6803F4E062044B1343CB60BFF34F8F10
:1034E00000BFFDE700ED00E00400FA0580B400AF86
:1034F000034B044A1A6000BFBD465DF8047B704769
:10350000740000200090D00380B500AF00F028F9CF
:103510000346002B02D0854B854A1A6000F042F921
:103520000346002B06D0834A834B1B685B0B03F0DA
:103530000703136000F068F90346002B05D07F4AAB
:103540007E4BDB6823F08073D36000F07FF9034685
:10355000002B0ED04FF080430022C3F80C214FF017
:1035600080430022C3F810214FF080430022C3F8AB
:10357000382500F09DF90346002B02D0704B032242
:103580001A6000F0B7F90346002B0BD06D4B0522F3
:103590001A606D4B01221A606C4B00221A606C4B52
:1035A0003F221A6000F0C8F90346002B76D0694A22
:1035B0004FF08053D3F80434C2F82035654A4FF0F9
:1035C0008053D3F80834C2F82435624A4FF0805350
:1035D000D3F80C34C2F828355E4A4FF08053D3F844
:1035E0001034C2F82C355B4A4FF08053D3F81434B2
:1035F000C2F83035574A4FF08053D3F81834C2F828
:103600003435544A4FF08053D3F81C34C2F8403557
:10361000504A4FF08053D3F82034C2F844354D4A15
:103620004FF08053D3F82434C2F84835494A4FF05C
:103630008053D3F82834C2F84C35464A4FF08053B3
:10364000D3F82C34C2F85035424A4FF08053D3F8A7
:103650003034C2F854353F4A4FF08053D3F83434F5
:10366000C2F860353B4A4FF08053D3F83834C2F883
:103670006435384A4FF08053D3F83C34C2F868358B
:10368000344A4FF08053D3F84034C2F86C35314A95
:103690004FF08053D3F84434C2F870352E4A2E4B85
:1036A000D3F8883043F47003C2F88830BFF34F8FEB
:1036B000BFF36F8F4FF01023D3F80032002B05DBE0
:1036C0004FF01023D3F80432002B2BDA234B0122C6
:1036D000C3F8042500BF214BD3F80034002BFAD0E7
:1036E0004FF010231522C3F8002200BF1B4BD3F864
:1036F0000034002BFAD04FF010231522C3F8042217
:1037000000BF164BD3F80034002BFAD0134B002225
:10371000C3F8042500BF114BD3F80034002BFAD0B6
:10372000FFF7D0FEFFF7E2FE00BF80BD74C0074088
:103730000DF0ADBA3C05004044020010F0ED00E091
:10374000A005004010560040885600401856004022
:103750001456004000C0004000ED00E000E00140D1
:1037600080B400AF0C4B1B68DBB2062B0DD10B4BAA
:103770001B6803F00F03002B07D1094B1B6803F0F4
:10378000F003302B01D1012300E000231846BD4691
:103790005DF8047B704700BFE00F00F0E40F00F01D
:1037A000E80F00F080B400AF144B1B68DBB2062BAF
:1037B0001DD1134B1B6803F00F03002B17D1114BC6
:1037C0001B6803F0F003302B01D1012310E00D4BF7
:1037D0001B6803F0F003402B01D1012308E0094BE3
:1037E0001B6803F0F003502B01D1012300E00023FC
:1037F0001846BD465DF8047B704700BFE00F00F03F
:10380000E40F00F0E80F00F080B400AF0C4B1B6831
:10381000DBB2062B0DD10B4B1B6803F00F03002B03
:1038200007D1094B1B6803F0F003302B01D10123B2
:1038300000E000231846BD465DF8047B704700BFDA
:10384000E00F00F0E40F00F0E80F00F080B400AFEC
:10385000144B1B68DBB2062B1DD1134B1B6803F006
:103860000F03002B17D1114B1B6803F0F003302B13
:1038700001D1012310E00D4B1B6803F0F003402B36
:1038800001D1012308E0094B1B6803F0F003502B22
:1038900001D1012300E000231846BD465DF8047BFA
:1038A000704700BFE00F00F0E40F00F0E80F00F0F9
:1038B00080B400AF0C4B1B68DBB2062B0DD10B4B59
:1038C0001B6803F00F03002B07D1094B1B6803F0A3
:1038D000F003302B01D1012300E000231846BD4640
:1038E0005DF8047B704700BFE00F00F0E40F00F0CC
:1038F000E80F00F080B400AF0C4B1B68DBB2062B66
:103900000DD10B4B1B6803F00F03002B07D1094BA4
:103910001B6803F0F003302B01D1012300E00023EA
:103920001846BD465DF8047B704700BFE00F00F00D
:10393000E40F00F0E80F00F080B400AF0C4B1B6800
:10394000DBB2062B0DD10B4B1B6803F00F03002BD2
:1039500007D1094B1B6803F0F003502B01D1012361
:1039600000E000231846BD465DF8047B704700BFA9
:10397000E00F00F0E40F00F0E80F00F080B483B037
:1039800000AF78607B68D3F81035DBB218460C378F
:10399000BD465DF8047B704780B485B000AF7860A9
:1039A0000B46FB70FB78FB607B684FF47A5202FB9E
:1039B00003F2FB6822FA03F318461437BD465DF89C
:1039C000047B704780B582B000AF786039607B6857
:1039D0001B681846FFF7D2FF034619463868FFF701
:1039E000DBFF034618460837BD4680BD80B483B070
:1039F00000AF7860084611461A460346FB700B4636
:103A0000BB7013467B704FF0A041FA78BB785B0027
:103A10001A437B789B001A433B7C1B021A433B7D75
:103A20001B041A437B6803F5E07341F8232000BFB1
:103A30000C37BD465DF8047B704780B584B002AF9B
:103A400078600023019300230093002301220121C9
:103A50007868FFF7CBFF00BF0837BD4680BD80B454
:103A600000AF4FF080430022C3F800214FF08043A5
:103A700001221A6000BF4FF08043D3F80031002BC1
:103A8000F9D000BFBD465DF8047B704780B582B0B9
:103A900000AF03463960FB80FB88B3F5A07F00D000
:103AA0000BE0FFF785F90346002B05D00548FFF72B
:103AB000CFF90246044B1A6000BF00BF0837BD466D
:103AC00080BD00BF7C000020502E002080B483B059
:103AD00000AF78607B681B78012B0CD0022B02D0E2
:103AE000002B04D010E00B4B01221A600CE00A4BB3
:103AF00001221A6008E0094B01221A60084B1B687A
:103B00000133074A136000BF00BF0C37BD465DF8A4
:103B1000047B7047682E0020642E0020602E002059
:103B20005C2E0020B0B58CB000AF2C4B1B68BB6284
:103B30002B4B1B687B622B4A07F11C0392E80300A6
:103B400083E80300284B3C1D1D460FCD0FC495E8AC
:103B5000030084E8030001233B71244B1B78FB75B1
:103B600001233B7300237B71214BBB6000233B751A
:103B700000233B7605237B823B1D1846FFF78EF81A
:103B8000F862FB6A002B01D0FB6A22E007F12803F0
:103B90001846FFF7FFFAF862FB6A002B01D0FB6AB8
:103BA00017E007F124031846FFF714FBF862FB6ADD
:103BB000002B01D0FB6A0CE007F11C03082118461A
:103BC000FFF728FBF862FB6A002B01D0FB6A00E0DC
:103BD000FB6A18463037BD46B0BD00BF4C420000FE
:103BE00050420000544200005C420000EC3F0020C4
:103BF000CD3A000080B582B000AF78607B681B785A
:103C0000012B0ED0022B06D0002B00D00FE00A4B68
:103C100001221A600BE07B685B681846FEF788F9A2
:103C200005E07B685B681846FEF782F900BF00BFBD
:103C30000837BD4680BD00BF6C2E002080B582B025
:103C400000AF786006E07B685A1C7A601B781846E3
:103C5000FCF7BEFD7B681B78002BF4D100BF083752
:103C6000BD4680BD80B400AF064B00221A60064BF3
:103C700000221A60054B00221A6000BFBD465DF8A5
:103C8000047B7047642E0020682E0020602E0020E8
:103C900080B598B002AF6423FB640023BB640023AB
:103CA0003B650EE04FF4F0123B6D42FA03F303F074
:103CB0000103002B02D0386DFFF7BFFE3B6D0133CF
:103CC0003B653B6D1F2BEDD94FF0A0434FF4F01235
:103CD000C3F808254FF0A0430022C3F80C25A44ADE
:103CE0000021A448FDF7D0FF78647B6C3B643B6CFB
:103CF000002B02D0386CFEF71BF9F96C9D48FFF7DA
:103D000061FEF863012300930123FA6B00219948B7
:103D1000FEF79CF8984A07F1140307CA83E80700E6
:103D2000964B7B604FF40063BB60954BFB604FF498
:103D300000633B61391D07F114000623914AFCF72B
:103D40009DFC78647B6CBB63BB6B002B02D0B86BB3
:103D5000FEF7EEF8FEF7D8F978647B6C7B637B6B3B
:103D6000002B02D0786BFEF7E3F8FFF778FEFFF741
:103D7000D9FE786400237B6508E0834A7B6D134499
:103D8000053300221A707B6D01337B657B6DFB2B45
:103D9000F3DD7E4B6FF004021A607D48FFF758F8A0
:103DA00002467C4B1A6000BF7B4B1B68002B07D17F
:103DB0007A4B1B68002B03D1794B1B68002BF3D087
:103DC000FFF750FF744B1B68012B07D17548FFF7B5
:103DD00035FF4FF4FA60FCF727FDDEE7FFF78AF9BD
:103DE0007148FFF72BFF6420FCF71EFD6F48FFF7BB
:103DF0002FF80246674B1A6000BF674B1B68002B09
:103E000007D1664B1B68002B03D1654B1B68002B49
:103E1000F3D0614B1B68012B09D1FFF723FF6448E6
:103E2000FFF70CFF41F28830FCF7FEFCDEE7FFF7FE
:103E300019FFFFF75FF95F48FFF700FF534B4FF0A3
:103E4000FF321A6041F28830FCF7EEFC00BF4948AF
:103E5000FDF78CFF504B1B68002B03D14F4B1B68A9
:103E6000002BF7D04C4B1B68012B06D15248FFF7B3
:103E7000E5FE4048FDF796FF8BE75048FFF782F8D4
:103E80004E4B5B79002B09D1404B00221A604C4805
:103E9000FFF7D4FE00BF0123BB643EE14948FFF7B2
:103EA000CDFE3448FDF77EFFFFF724F971E73B4B69
:103EB0001B68012B40F0A9809DE0404B1B78F92B3B
:103EC00011D92C48FDF78AFF3148FEF7C1FF0246A1
:103ED000304B1A602C4B1B790133DAB22A4B1A7122
:103EE0003948FFF7ABFE294B1B68FE2B07DC334B31
:103EF0005B791A46254B1B6801339A4207D1234B45
:103F00001B68FF2B16D12D4B5B79002B12D01F4B5A
:103F10001B68DAB2294B5B79D31ADBB20133DBB20F
:103F200087F833302948FFF789FE97F83330184671
:103F3000FCF74EFC214B5B791A46144B1A601F4B61
:103F40001B78032B08D11D4B9B79F12B04D11B4B04
:103F5000DB79F02B00D14EE01D48FFF76FFE174BC9
:103F60001B781846FCF734FC00237B653DE000BF5E
:103F70008D3A000044420000AC420000702E002048
:103F800070360020F53B0000EC3F00207800002058
:103F90007C000020502E0020602E0020682E002083
:103FA000642E00207442000078420000800100204E
:103FB0007C4200008042000084420000E83E002075
:103FC000884200008C4200009042000098420000AD
:103FD000A0420000534A7B6D134405331B781846FA
:103FE000FCF7F6FB7B6D01337B654E4B1B781A4665
:103FF0007B6D9A42EEDC4B48FEF7C4FF0346002B74
:104000003FF45BAF484B00221A60484B1B68012B02
:104010000ED14748FFF712FE464B1B680E2B04DDFE
:10402000FFF716F8434B00221A60404B00221A603B
:10403000414B1B68012B70D166E0404B1B68012B84
:1040400029D0022B2FD0002B5DD13D4B1B78852B27
:1040500013D0852B04DC172B07D0232B09D019E0B4
:10406000902B0ED0E12B0FD014E03648FDF77EFEEA
:1040700010E03448FDF796FE0CE0304B01221A6048
:1040800008E0FFF707F805E0FEF7E2FF02462E4BD7
:104090001A6000BF38E02A4B1A782C4B1A70274B55
:1040A00002221A6030E02A4B1B68254A1178274A01
:1040B00013440A465A71264B1B680133244A136085
:1040C000224B1B781A46224B1B689A421CD11B4B71
:1040D00000221A601B48FDF781FE1C48FEF7B8FE5F
:1040E0001B4B1B68DBB21846FCF772FB184B002217
:1040F0001A60164B00221A70144B1B790133DAB286
:10410000124B1A7100E000BF0D48FCF73DFB03465F
:10411000002B92D0084B00221A60BB6C002B7FF45E
:10412000C6AE36E6E83E0020682E0020602E002055
:10413000A44200005C2E00206C2E0020582E00208F
:104140004C2E002044420000502E0020EC3F002066
:10415000542E00200649074A074B9B1A03DD043BF7
:10416000C858D050FBDCFFF7CFF9FCF77FF900000F
:10417000C44200000000002090020020FEE7FEE79D
:10418000FEE7FEE7FEE7FEE7FEE7FEE7FEE7FEE707
:1041900010B5431E0A44914200D110BD11F8014BE5
:1041A00003F8014FF7E7034611F8012B03F8012B41
:1041B000002AF9D170470000F8B500BFF8BC08BC70
:1041C0009E467047F8B500BFF8BC08BC9E467047D5
:1041D00000000020060000000800000007000000AA
:1041E0000500000000000000000000000000D601F3
:1041F00006000000060000000800000007000000A4
:104200000500000000000000000000000000D601D2
:104210000600000000000306000000004E6F726DF3
:10422000616C0000496E7075740000005465726D19
:10423000696E616C000000005254540053454747BA
:10424000455200000080004000040000E7E7E7E777
:10425000C2C2C2C2E7C2C3C4C5C6C7C8010000000B
:104260000000000001020000FA000300000102202B
:1042700000000000B0070100B0070200B007030013
:10428000B0070400B0070500B0070600B00707003C
:10429000FEEDBEAD00000000BADDF00D0000000034
:1042A000DA7A0000DEADBEEF000000000806050768
:0C42B000000000000000001000000000F2
:0842BC00B0C1FF7F010000000A
:1042C40000000000000000000000000000000000EA
:1042D40000000000000000000000000000000000DA
:1042E40000000000000000000000000000000000CA
:1042F40000000000000000000000000000000000BA
:1043040000000000000000000000000000000000A9
:104314000000000000000000000000000000000099
:10432400E7E7E7E7C2C2C2C2E7C2C3C4C5C6C7C89B
:104334000805FF020090D003FBFFFFFF010000000F
:104344000061000000000000000000000000000008
:104354000000000000000000000000000000000059
:104364000000000000000000000000000000000049
:104374000000000000000000000000000000000039
:104384000000000000000000000000000000000029
:104394000000000000000000000000000000000019
:1043A4000000000000000000000000000000000009
:1043B40000000000000000000000000000000000F9
:1043C40000000000000000000000000000000000E9
:1043D40000000000000000000000000000000000D9
:1043E40000000000000000000000000000000000C9
:1043F40000000000000000000000000000000000B9
:1044040000000000000000000000000000000000A8
:104414000000000000000000000000000000000098
:104424000000000000000000000000000000000088
:104434000000000000000000000000000000000078
:1044440003000000001235370000000000000000E7
:104454000000000000000000000000000000000058
:104464000000000000000000000000000000000048
:104474000000000000000000000000000000000038
:104484000000000000000000000000000000000028
:104494000000000000000000000000000000000018
:1044A4000000000000000000000000000000000008
:1044B40000000000000000000000000000000000F8
:1044C40000000000000000000000000000000000E8
:1044D40000000000000000000000000000000000D8
:1044E40000000000000000000000000000000000C8
:1044F40000000000000000000000000000000000B8
:1045040000000000000000000000000000000000A7
:104514000000000000000000000000000000000097
:104524000000000000000000000000000000000087
:104534000000000000000000000000000000000077
:104544000000000025040000010400000000000039
:040000030000415563
:00000001FF
